{
  "contractName": "Courses",
  "abi": [
    {
      "constant": false,
      "inputs": [
        {
          "name": "_fName",
          "type": "string"
        },
        {
          "name": "_age",
          "type": "uint256"
        }
      ],
      "name": "setInstructor",
      "outputs": [],
      "payable": false,
      "stateMutability": "nonpayable",
      "type": "function"
    },
    {
      "constant": true,
      "inputs": [],
      "name": "getInstructor",
      "outputs": [
        {
          "name": "",
          "type": "string"
        },
        {
          "name": "",
          "type": "uint256"
        }
      ],
      "payable": false,
      "stateMutability": "view",
      "type": "function"
    }
  ],
  "bytecode": "0x608060405234801561001057600080fd5b50610353806100206000396000f3fe608060405260043610610046576000357c01000000000000000000000000000000000000000000000000000000009004806322faf03a1461004b5780633c1b81a51461011d575b600080fd5b34801561005757600080fd5b5061011b6004803603604081101561006e57600080fd5b810190808035906020019064010000000081111561008b57600080fd5b82018360208201111561009d57600080fd5b803590602001918460018302840111640100000000831117156100bf57600080fd5b91908080601f016020809104026020016040519081016040528093929190818152602001838380828437600081840152601f19601f820116905080830192505050505050509192919290803590602001909291905050506101b4565b005b34801561012957600080fd5b506101326101d6565b6040518080602001838152602001828103825284818151815260200191508051906020019080838360005b8381101561017857808201518184015260208101905061015d565b50505050905090810190601f1680156101a55780820380516001836020036101000a031916815260200191505b50935050505060405180910390f35b81600090805190602001906101ca929190610282565b50806001819055505050565b6060600080600154818054600181600116156101000203166002900480601f0160208091040260200160405190810160405280929190818152602001828054600181600116156101000203166002900480156102735780601f1061024857610100808354040283529160200191610273565b820191906000526020600020905b81548152906001019060200180831161025657829003601f168201915b50505050509150915091509091565b828054600181600116156101000203166002900490600052602060002090601f016020900481019282601f106102c357805160ff19168380011785556102f1565b828001600101855582156102f1579182015b828111156102f05782518255916020019190600101906102d5565b5b5090506102fe9190610302565b5090565b61032491905b80821115610320576000816000905550600101610308565b5090565b9056fea165627a7a723058205814ab400d2c0584177981104ec628596d216bd598dde2dcc5fc3603fe3cf8b00029",
  "source": "pragma solidity ^0.5.1;\r\n\r\ncontract Courses {\r\n \r\n string fName;\r\n uint age;\r\n \r\n function setInstructor(string memory _fName, uint _age) public {\r\n   fName = _fName;\r\n   age = _age;\r\n }\r\n \r\n function getInstructor() public view returns (string memory, uint) {\r\n   return (fName, age);\r\n }\r\n \r\n}",
  "sourcePath": "C:/wamp64/www/ganache/contracts/Courses.sol",
  "compiler": {
    "name": "solc",
    "version": "0.5.1+commit.c8a2cb62.Emscripten.clang"
  },
  "schemaVersion": "3.3.2",
  "updatedAt": "2020-12-16T11:53:30.992Z",
  "networkType": "ethereum",
  "devdoc": {
    "methods": {}
  },
  "userdoc": {
    "methods": {}
  }
}